:040B540054483A00C7
:1007B100012E00014008012C00014F00013F000102
:1007C1002F00012D00012B000E413F065B4F666D8E
:1007D1007D077F6F394000FF0A21BF86DBCFE6ED41
:1007E100FD87FFEF0F30C0F9A4B0999282F8809095
:1007F100C640BFFF000A5040792430191202780028
:0308010010C10023
:10045500E4F509F50A750B7FF50C120AF9120A7312
:100465007FCC1209B57F441209B512075AEEF52B58
:1004750012075A8F2DAF40120A8FE4F509E4F50AE9
:10048500E50A04FFAD4D120939050AE50AC39404CE
:1004950040EEE50904FFAD4E1209397FC87E001212
:1004A5000AE50509E509C3940440D2120A73407BA5
:1004B5001206928F2C1209628F2EE52C24FE6027DE
:1004C500047039E52EC3942840051209898013125A
:1004D500075AEEF52BFF1201B58F2BAB0BAD2D1285
:1004E50008E3E4F52E801A12075A8F2D1201B58FF5
:1004F5002DAB0BAD2DAF2B1208E3800512000E8F2F
:100505000CC3E52B6480F8E50C648098500CE52D50
:100515006480F8E50C648098500BC295C2B07F6486
:100525007E00120AE5D295D2B08080C2957F887E82
:0405350013020AE5BE
:100ABB00D2AFD2A95389F0438901758AB0758C3CAA
:050ACB00C28DD28C2257
:10096200C2A95389F0438901E4F52E120692EF6081
:1009720011758AB0758C3CC28DD28C308DFD052EDE
:0709820080E9C28CAF2E22B8
:10000E00E4F50D1206FA8E0E8F0FC3E50E64809482
:10001E008040030200C5E50FF4FFE50EF4FEEF2469
:10002E0001FFE43EFEEF7804CEA2E713CE13D8F81C
:10003E00FBAA067C007D0AFF12041F8D3F7C007D0B
:10004E000AAF03AE0212041F7C007D0A12041F8D3C
:10005E002FE52F75F00AA4253FF404F50D74412504
:10006E003FF8E6FD7F03120939E52F600E2441F8B3
:10007E00E6FD7F02120939AD4C8009AD4C7F0212AC
:10008E000939AD4D7F011209397B2D7D017F021299
:10009E000B4AE52FFB7A007514017D027F02120ACE
:1000AE0056E53FFB7A007514017D037F02120A5656
:1000BE007B437D040201817E00E50F540FFF7C021D
:1000CE007D711203B80C7DE812041F7C007D0A12AC
:1000DE00041F8D4FAE0EAF0F7C007D1012041F7CDF
:1000EE00007D0A12041F8D3FAE0EAF0F7C007DA067
:1000FE0012041F7C007D0A12041F8D2FE52F75F050
:10010E000AA4253FF50D7441254FF8E6FD7F031235
:10011E0009397421253FF8E6FD7F02120939E52FD2
:10012E0060072441F8E6FD8002AD4D7F01120939CA
:10013E007B2B7D017F01120B4AE52FFB7A00751494
:10014E00017D017F02120A56E53FFB7A007514010C
:10015E007D027F02120A567B2E7D037F02120B4A0E
:10016E00E54FFB7A007514017D047F02120A567B5F
:10017E00437D057F02120B4AAD4B7F041209397B7A
:10018E00FF7A0B79547D0B7F011209F6E52BFB33B9
:10019E0095E0FA7514027D0E7F01120A567F057ED8
:0601AE0000120AE5AF0D8E
:0101B4002228
:0201B5008F0DAC
:1001B700C201AD4B7F04120939C3E50D64809480F9
:1001C7005030D201AF0DEF3395E0FEEFF4FFEEF4C0
:1001D700FEEF2401FBE43EFA7C007D0AAF03FE122A
:1001E700041F8D3F7C007D0AAF03AE0212041FEF90
:1001F7008016C201E50D75F00A12035085F03FE540
:100207000D75F00A120350FF75F00A12035085F0BE
:100217002FE52C6405700302033C2001030202B79B
:10022700E52FD394044003752F041206928F2CE513
:100237002C64016074E52C6405606EE52F6010ADD9
:100247004C7F011209397441252FF8E6FD8009AD6D
:100257004D7F01120939AD4C7F02120939744125CE
:100267003FF8E6FD7F031209397F027E00120AE597
:100277001206928F2C120692EF60097F027E0012FF
:100287000AE580F1E52CB4030CE52FB40405E4F589
:100297002F8002052FE52C64047094E53FB409050F
:1002A700E4F53F808A053F8086E52CB40102C20150
:1002B700300103020218E52C6402606BE52C64052B
:1002C7006065E52F60072441F8E6FD8002AD4D7FAC
:1002D700021209397441253FF8E6FD7F03120939F7
:1002E700AD4D7F011209397F027E00120AE5120621
:1002F700928F2C120692EF60097F027E00120AE5A8
:1003070080F1E52CB4030CE52FB40905E4F52F8043
:1003170002052FE52C6404709DE53FB40905E4F55B
:100327003F8093053F808FE52C640260030202182B
:10033700D201020218E52F75F00AA4253FF50D300A
:080347000104F404F50DAF0DF3
:01034F00228B
:10098900AD4D7F01120939AD4D7F02120939AD4DC7
:100999007F03120939E4F52E120ABBE52CB405FBD5
:0509A900AF40020A8FBF
:03000B00020539B2
:10053900C0E0C0F0C083C082C0D075D000C000C088
:0D05490001C002C003C004C005C006C00709
:10055600C28C758AB0758C3C052EE52EC3940A4074
:1005660018752E0030000974412540F8E6FD80021A
:10057600AD4D7F04120939B2001206928F2C120675
:1005860092EF60097F027E00120AE580F1E52C24D5
:10059600FE601514601D14603324037046E540B4F4
:1005A600080280180540803BE540B40502802B1503
:1005B600408030E54024F8600804700A75400580E4
:1005C60022754006801D054005408017E54024FA47
:1005D600600804700A754007800975400880041594
:0505E600401540D28C1D
:1005EB00D007D006D005D004D003D002D001D00064
:0B05FB00D0D0D082D083D0F0D0E0320E
:06000300000000DFFB22FB
:100A7300C201C2B77F60120003D2B77F0C1200031A
:0B0A8300A2B792017F3C120003A20109
:010A8E002245
:100A1900E4FEFDC2B70000D2B7EDC313FD30B70342
:0E0A29004305807F0B1200030EBE08E7AF05E9
:010A3700229C
:0709AE007FCC1209B57FBEEA
:0209B500AE078B
:1009B700E4FDC2B70000EE1392B77F0C120003D21A
:0B09C700B7EEC313FE00000DBD08E7F3
:0109D2002202
:1009D300E4FEFDEE6F30E00C630618EEC313FE4336
:1009E30006808004EEC313FEEFC313FF0DBD08E3BF
:0209F300AF064D
:0109F50022DF
:080910008B1B8A1C891DAC053C
:10091800E4FFAE041CEE6018AB1B051DE51DAA1C08
:100928007002051C14F91203726FFF1209D380E2DA
:01093800229C
:1006FA00E4FCF519F51A120A737FCC1209B57F4486
:10070A001209B57F647E00120AE5120A731209AE55
:10071A00E4FC120A1974102CF8A6070CBC09F37B26
:10072A00007A0079107D09120910EF6014C2957FD2
:10073A00E87E03120AE5D2957FE87E03120AE58075
:0F074A00DEE51A4511F519E510F51AAE19AF1ACB
:01075900227D
:10075A00E4FCF516F517120A737FCC1209B57FB8B7
:10076A001209B5120A731209AE120A19740D2CF87D
:10077A00A6070CBC09F37B007A00790D7D091209E2
:10078A0010EF6014C2957FD07E07120AE5D2957FDA
:10079A00D07E07120AE580DEE517450FF516E5104B
:0607AA00F517AE16AF17B3
:0107B0002226
:1008E300AC07AA05120A737FCC1209B57F4E120911
:1008F300B5AF041209B5AF021209B5AF031209B5BA
:0D090300120A737FCC1209B57F480209B5B6
:100AE500EF4E600F7D027CEFDCFEDDFCEF1F70F04A
:030AF5001E80ED73
:010AF80022DB
:0C0B1C00D2A100D2A000C2A000C2A12201
:100AD000E4FE00EF1392A0D2A100C2A1EFC313FF66
:040AE0000EBE08EE50
:010AE40022EF
:030B2800120AD0DE
:090B2B0000D295D2A100C2A12262
:0C0B3400C2A100C2A000D2A100D2A022E9
:10069200E4F50EFDFC120B1C7F42120B28D2A0EDDA
:1006A200C394085014ECC313FC00D2A130A003433E
:1006B200048000C2A1000D80E6120B2B120B34EC59
:1006C200240D60291460211460191460111460094A
:1006D20024F8701EE4F50E801C750E018017750E4D
:1006E200028012750E03800D750E048008750E05CA
:0706F2008003750E06AF0E38
:0106F90022DE
:020A8F00AE07B0
:100A9100EE6006144488FF80027F80120B1C120B4B
:040AA10028020B34E8
:10093900AC07120B1C7F44120AD0120B2B120B347A
:10094900120B1CEC1444C0FF120AD0120B2BAF057A
:09095900120AD0120B2B020B3420
:060B0D00C2A58F80D2A7F3
:080B13007F027EC7DEFEDFFC5D
:010B1B0022B7
:0A0B4000C2A6120B0DC2A7020B1390
:100A3800CFCDCFCECCCE1203CA7C007D0A1203CA1A
:040A4800ED2430FF6A
:0A0A4C00D2A6120B0DC2A7020B1375
:100AA500AE07BE0104ED148006BE0209ED243F44E5
:060AB50080FF120B40223D
:100AF9007F38120B407F0C120B407F06120B407F90
:040B090001020B409A
:0A0B4A00AC03120AA5AF04020A4C26
:0609F6008B108A1189122A
:1009FC00120AA5E4FDAB10AA11A9128D8275830011
:0C0A0C0012038BFF6006120A4C0D80E9FB
:010A180022BB
:0C08B0007F0AEA24FFFDE434FFFC7E0018
:0808BC008E158F168C178D18A4
:1008C4007F017E00E4FBEBC39518E5176480F874A0
:0E08D4008098500AAC15AD161203B80B80E8E0
:0108E20022F3
:040A56008A128B1362
:100A5A00120AA5AA14EAD39400400D1208B0AC12E7
:080A6A00AD13120A381A80EDE9
:010A72002261
:10080500120AA5C3EA64809480400B7F2B120A4C20
:100815008A5F8B60800E7F2D120A4CC3E49BF560C6
:10082500E49AF55FAA5EEAD39400400D1208B0ACD5
:090835005FAD60120A381A80ED73
:01083E002297
:04083F008A638B64D9
:10084300120AA5AA65EAD3940040297F101208B2C0
:10085300AC63AD64CFCDCFCECCCE1203CAEF540F71
:10086300FEC3940AEE5004243080022437FF120A98
:040873004C1A80D1CA
:01087700225E
:040878008A688B6996
:10087C00120AA5AA6AEAD394004028EA24FFFDE4F0
:10088C0034FFFC7F027E001208BCAC68AD69CFCD92
:10089C00CFCECCCE1203CAEF54012430FF120A4C37
:0308AC001A80D2DD
:0108AF002226
:03000000020606EF
:0C060600787FE4F6D8FD75816A02064D8D
:10035000C2D530F707B2D563F0FF05F030E70CB235
:10036000D5F4048463F0FF05F080018430D502F4F5
:02037000042265
:10037200BB010689828A83E0225002E722BBFE0289
:09038200E32289828A83E49322BC
:10038B00BB010CE58229F582E5833AF583E0225027
:10039B0006E92582F8E622BBFE06E92582F8E22271
:0D03AB00E58229F582E5833AF583E493228B
:1003B800EF8DF0A4A8F0CF8CF0A428CE8DF0A42E59
:0203C800FE2213
:1003CA00BC000BBE0029EF8DF084FFADF022E4CC17
:1003DA00F875F008EF2FFFEE33FEEC33FCEE9DECE0
:1003EA00984005FCEE9DFE0FD5F0E9E4CEFD22ED26
:1003FA00F8F5F0EE8420D21CFEADF075F008EF2F70
:10040A00FFED33FD4007985006D5F0F222C398FD60
:05041A000FD5F0EA22FD
:10041F00C2D5EC30E709B2D5E4C39DFDE49CFCEEF8
:10042F0030E715B2D5E4C39FFFE49EFE1203CAC3A3
:10043F00E49DFDE49CFC80031203CA30D507C3E49E
:06044F009FFFE49EFE2267
:10061200020455E493A3F8E493A34003F68001F2A5
:1006220008DFF48029E493A3F85407240CC8C333E9
:10063200C4540F4420C8834004F456800146F6DFB8
:10064200E4800B01020408102040809007B1E47E90
:10065200019360BCA3FF543F30E509541FFEE493AD
:10066200A360010ECF54C025E060A840B8E493A374
:10067200FAE493A3F8E493A3C8C582C8CAC583CA9F
:10068200F0A3C8C582C8CAC583CADFE9DEE780BE57
:0108040000F3
:00000001FF
