:1006E900012E00013108012C0001400001300001F8
:1006F9002F00012D00012B000E323F065B4F666D66
:100709007D077F6F394000FF0A21BF86DBCFE6ED09
:06071900FD87FFEFC100A7
:1002B700E4F509F50A750B7FF50C1208527FCC128D
:1002C70007F27F441207F2120692EEF52B120692FE
:1002D7008F2DAF3112086EE4F509E4F50AE50A043B
:1002E700FFAD3E120776050AE50AC3940440EEE522
:1002F7000904FFAD3F1207767FC87E0012089905F3
:1003070009E509C3940440D212085240791205C77F
:100317008F2C12079F8F2EE52C24FE60270470393F
:10032700E52EC3942840051207C68013120692EEE5
:10033700F52BFF12000E8F2BAB0BAD2D120720E410
:10034700F52E801A1206928F2D12000E8F2DAB0BF1
:10035700AD2DAF2B12072080051201A98F0CC3E525
:100367002B6480F8E50C648098500CE52D6480F8C8
:10037700E50C648098500BC2957F647E0012089943
:0F0387008086D2958082C2957F887E1302089966
:10088400D2AFD2A95389F0438901758AB0758C3CE3
:05089400C28DD28C2290
:10079F00C2A95389F0438901E4F52E1205C7EF6012
:1007AF0011758AB0758C3CC28DD28C308DFD052EA3
:0707BF0080E9C28CAF2E227D
:1001A900E4F50D1206328E0E8F0FC3E50E648094AE
:1001B900805071E50FF4FFE50EF4FEEF2401FFE432
:1001C9003EFEEF7804CEA2E713CE13D8F8FBAA06B9
:1001D9007C007D0AFF1203E38D307C007D0AAF03AA
:1001E900AE021203E37C007D0A1203E38D2FE52F93
:1001F90075F00AA42530F404F50D74322530F8E6BB
:10020900FD7F03120776E52F600F2432F8E6FD7FA4
:1002190002120776AD3D0202A1AD3D7F02120776BB
:10022900AD3E80747E00E50F540FFF7C027D711294
:1002390003D10C7DE81203E37C007D0A1203E38DF0
:1002490040AE0EAF0F7C007D101203E37C007D0AE7
:100259001203E38D30AE0EAF0F7C007DA01203E3D5
:100269007C007D0A1203E38D2FE52F75F00AA42582
:1002790030F50D74322540F8E6FD7F0312077674D8
:10028900212530F8E6FD7F02120776E52F60072465
:1002990032F8E6FD8002AD3E7F01120776AD3C7F64
:0D02A900041207767F057E00120899AF0D44
:0102B6002225
:02000E008F0D54
:10001000C201AD3C7F04120776C3E50D6480948075
:100020005030D201AF0DEF3395E0FEEFF4FFEEF468
:10003000FEEF2401FBE43EFA7C007D0AAF03FE12D2
:1000400003E38D307C007D0AAF03AE021203E3EFC1
:100050008016C201E50D75F00A12039685F030E5B1
:100060000D75F00A120396FF75F00A12039685F0DB
:100070002FE52C6405700302019520010302011095
:10008000E52FD394044003752F041205C78F2CE588
:100090002C64016074E52C6405606EE52F6010AD82
:1000A0003D7F011207767432252FF8E6FD8009ADF9
:1000B0003E7F01120776AD3D7F021207767432252E
:1000C00030F8E6FD7F031207767F027E0012089962
:1000D0001205C78F2C1205C7EF60097F027E001240
:1000E000089980F1E52CB4030CE52FB40405E4F580
:1000F0002F8002052FE52C64047094E530B40905C7
:10010000E4F530808A05308086E52CB40102C20116
:10011000300103020071E52C6402606BE52C64057C
:100120006065E52F60072432F8E6FD8002AD3E7F72
:100130000212077674322530F8E6FD7F0312077647
:10014000AD3E7F011207767F027E001208991205EC
:10015000C78F2C1205C7EF60097F027E0012089935
:1001600080F1E52CB4030CE52FB40905E4F52F80EC
:1001700002052FE52C6404709DE530B40905E4F513
:100180003080930530808FE52C640260030200719B
:10019000D201020071E52F75F00AA42530F50D306B
:0801A0000104F404F50DAF0D9C
:0101A8002234
:1007C600AD3E7F01120776AD3E7F02120776AD3E43
:1007D6007F03120776E4F52E120884E52CB405FB98
:0507E600AF3102086EB6
:03000B0002046E7E
:10046E00C0E0C0F0C083C082C0D075D000C000C054
:0D047E0001C002C003C004C005C006C007D5
:10048B00C28C758AB0758C3C052EE52EC3940A4040
:10049B0018752E0030000974322531F8E6FD800204
:1004AB00AD3E7F04120776B2001205C78F2C1205E2
:1004BB00C7EF60097F027E0012089980F1E52C24BA
:1004CB00FE601514601D14603324037046E531B4CF
:1004DB00080280180531803BE531B40502802B15ED
:1004EB00318030E53124F8600804700A75310580DD
:1004FB0022753106801D053105318017E53124FA4F
:10050B00600804700A75310780097531088004157D
:05051B00311531D28C06
:10052000D007D006D005D004D003D002D001D0002F
:0B053000D0D0D082D083D0F0D0E032D9
:06000300000000DFFB22FB
:10085200C201C2B77F60120003D2B77F0C1200033D
:0B086200A2B792017F3C120003A2012C
:01086D002268
:10083300E4FEFDC2B70000D2B7EDC313FD30B7032A
:0E0843004305807F0B1200030EBE08E7AF05D1
:010851002284
:0707EB007FCC1207F27FBE74
:0207F200AE0750
:1007F400E4FDC2B70000EE1392B77F0C120003D2DF
:0B080400B7EEC313FE00000DBD08E7B7
:01080F0022C6
:10081000E4FEFDEE6F30E00C630618EEC313FE43FA
:1008200006808004EEC313FEEFC313FF0DBD08E383
:02083000AF0611
:0108320022A3
:08074D008B1B8A1C891DAC0501
:10075500E4FFAE041CEE6018AB1B051DE51DAA1CCD
:100765007002051C14F91203B86FFF12081080E21D
:010775002261
:10063200E4FCF519F51A1208527FCC1207F27F4436
:100642001207F27F647E001208991208521207EB19
:10065200E4FC12083374102CF8A6070CBC09F37BD7
:10066200007A0079107D0912074DEF6014C2957F60
:10067200E87E03120899D2957FE87E0312089980DA
:0F068200DEE51A4511F519E510F51AAE19AF1A94
:010691002246
:10069200E4FCF516F5171208527FCC1207F27FB868
:1006A2001207F21208521207EB120833740D2CF8DB
:1006B200A6070CBC09F37B007A00790D7D091207AD
:1006C2004DEF6014C2957FD07E07120899D2957FB4
:1006D200D07E0712089980DEE517450FF516E51062
:0606E200F517AE16AF177C
:0106E80022EF
:10072000AC07AA051208527FCC1207F27F4E1207BF
:10073000F2AF041207F2AF021207F2AF031207F290
:0D0740001208527FCC1207F27F480207F228
:10089900EF4E600F7D027CEFDCFEDDFCEF1F70F098
:0308A9001E80EDC1
:0108AC002229
:0A08D500D2A1D2A000C2A0C2A1224D
:1008AD00E4FEEF1392A0D2A100C2A1EFC313FF0E7D
:0308BD00BE08EF83
:0108C0002215
:0308C1001208AD6D
:1008C400000030A004C29580F9D295D2A100C2A143
:0108D4002201
:0A08DF00C2A1C2A000D2A1D2A02243
:1005C700E4F50EFDFC1208D57F421208C1D2A0ED5A
:1005D700C394085017ECC313FC0000D2A130A0034A
:1005E7004304800000C2A100000D80E31208C4127A
:1005F70008DFEC240D6029146021146019146011C0
:1006070014600924F8701EE4F50E801C750E018035
:1006170017750E028012750E03800D750E04800883
:0A062700750E058003750E06AF0E78
:0106310022A6
:02086E00AE07D3
:10087000EE6006144488FF80027F801208D51208BB
:04088000C10208DFCA
:10077600AC071208D57F441208AD1208C41208DF70
:100786001208D5EC1444C0FF1208AD1208C4AF0518
:090796001208AD1208C40208DFCC
:0300000002053BBB
:0C053B00787FE4F6D8FD7581400205824F
:10039600C2D530F707B2D563F0FF05F030E70CB2EF
:1003A600D5F4048463F0FF05F080018430D502F4AF
:0203B60004221F
:1003B800BB010689828A83E0225002E722BBFE0243
:0903C800E32289828A83E4932276
:1003D100EF8DF0A4A8F0CF8CF0A428CE8DF0A42E40
:0203E100FE22FA
:1003E300C2D5EC30E709B2D5E4C39DFDE49CFCEE35
:1003F30030E715B2D5E4C39FFFE49EFE120419C390
:10040300E49DFDE49CFC800312041930D507C3E48A
:060413009FFFE49EFE22A3
:100547000202B7E493A3F8E493A34003F68001F211
:1005570008DFF48029E493A3F85407240CC8C333B5
:10056700C4540F4420C8834004F456800146F6DF84
:10057700E4800B01020408102040809006E9E47E25
:10058700019360BCA3FF543F30E509541FFEE49379
:10059700A360010ECF54C025E060A840B8E493A340
:1005A700FAE493A3F8E493A3C8C582C8CAC583CA6B
:1005B700F0A3C8C582C8CAC583CADFE9DEE780BE23
:01071F0000D9
:10041900BC000BBE0029EF8DF084FFADF022E4CCC7
:10042900F875F008EF2FFFEE33FEEC33FCEE9DEC90
:10043900984005FCEE9DFE0FD5F0E9E4CEFD22EDD6
:10044900F8F5F0EE8420D21CFEADF075F008EF2F20
:10045900FFED33FD4007985006D5F0F222C398FD11
:050469000FD5F0EA22AE
:00000001FF
