:040B470054483A00D4
:1007AE00012E00014008012C00014F00013F000105
:1007BE002F00012D00012B000E413F065B4F666D91
:1007CE007D077F6F394000FF0A21BF86DBCFE6ED44
:1007DE00FD87FFEF0F30C0F9A4B0999282F8809098
:1007EE00C640BFFF000A504079243019120278002B
:0307FE0010C10027
:10045500E4F509F50A750B7FF50C120AE1120A702D
:100465007FCC1209B27F441209B2120757EEF52B61
:100475001207578F2DAF40120A8CE4F509E4F50AEF
:10048500E50A04FFAD4D120936050AE50AC39404D1
:1004950040EEE50904FFAD4E1209367FC87E001215
:1004A5000ACD0509E509C3940440D2120A70407BC0
:1004B5001206928F2C12095F8F2EE52C24FE6027E1
:1004C500047039E52EC3942840051209868013125D
:1004D5000757EEF52BFF1201B58F2BAB0BAD2D1288
:1004E50008E0E4F52E801A1207578F2D1201B58FFB
:1004F5002DAB0BAD2DAF2B1208E0800512000E8F32
:100505000CC3E52B6480F8E50C648098500CE52D50
:100515006480F8E50C648098500BC295C2B07F6486
:100525007E00120ACDD295D2B08080C2957F887E9A
:0405350013020ACDD6
:100AB800D2AFD2A95389F0438901758AB0758C3CAD
:050AC800C28DD28C225A
:10095F00C2A95389F0438901E4F52E120692EF6084
:10096F0011758AB0758C3CC28DD28C308DFD052EE1
:07097F0080E9C28CAF2E22BB
:10000E00E4F50D1206F78E0E8F0FC3E50E64809485
:10001E008040030200C5E50FF4FFE50EF4FEEF2469
:10002E0001FFE43EFEEF7804CEA2E713CE13D8F81C
:10003E00FBAA067C007D0AFF12041F8D3F7C007D0B
:10004E000AAF03AE0212041F7C007D0A12041F8D3C
:10005E002FE52F75F00AA4253FF404F50D74412504
:10006E003FF8E6FD7F03120936E52F600E2441F8B6
:10007E00E6FD7F02120936AD4C8009AD4C7F0212AF
:10008E000936AD4D7F011209367B2D7D017F02129F
:10009E000B2BE52FFB7A007514017D027F02120AED
:1000AE0053E53FFB7A007514017D037F02120A535C
:1000BE007B437D040201817E00E50F540FFF7C021D
:1000CE007D711203B80C7DE812041F7C007D0A12AC
:1000DE00041F8D4FAE0EAF0F7C007D1012041F7CDF
:1000EE00007D0A12041F8D3FAE0EAF0F7C007DA067
:1000FE0012041F7C007D0A12041F8D2FE52F75F050
:10010E000AA4253FF50D7441254FF8E6FD7F031235
:10011E0009367421253FF8E6FD7F02120936E52FD8
:10012E0060072441F8E6FD8002AD4D7F01120936CD
:10013E007B2B7D017F01120B2BE52FFB7A007514B3
:10014E00017D017F02120A53E53FFB7A007514010F
:10015E007D027F02120A537B2E7D037F02120B2B30
:10016E00E54FFB7A007514017D047F02120A537B62
:10017E00437D057F02120B2BAD4B7F041209367B9C
:10018E00FF7A0B79477D0B7F011209F3E52BFB33C9
:10019E0095E0FA7514027D0E7F01120A537F057EDB
:0601AE0000120ACDAF0DA6
:0101B4002228
:0201B5008F0DAC
:1001B700C201AD4B7F04120936C3E50D64809480FC
:1001C7005030D201AF0DEF3395E0FEEFF4FFEEF4C0
:1001D700FEEF2401FBE43EFA7C007D0AAF03FE122A
:1001E700041F8D3F7C007D0AAF03AE0212041FEF90
:1001F7008016C201E50D75F00A12035085F03FE540
:100207000D75F00A120350FF75F00A12035085F0BE
:100217002FE52C6405700302033C2001030202B79B
:10022700E52FD394044003752F041206928F2CE513
:100237002C64016074E52C6405606EE52F6010ADD9
:100247004C7F011209367441252FF8E6FD8009AD70
:100257004D7F01120936AD4C7F02120936744125D4
:100267003FF8E6FD7F031209367F027E00120ACDB2
:100277001206928F2C120692EF60097F027E0012FF
:100287000ACD80F1E52CB4030CE52FB40405E4F5A1
:100297002F8002052FE52C64047094E53FB409050F
:1002A700E4F53F808A053F8086E52CB40102C20150
:1002B700300103020218E52C6402606BE52C64052B
:1002C7006065E52F60072441F8E6FD8002AD4D7FAC
:1002D700021209367441253FF8E6FD7F03120936FD
:1002E700AD4D7F011209367F027E00120ACD12063C
:1002F700928F2C120692EF60097F027E00120ACDC0
:1003070080F1E52CB4030CE52FB40905E4F52F8043
:1003170002052FE52C6404709DE53FB40905E4F55B
:100327003F8093053F808FE52C640260030202182B
:10033700D201020218E52F75F00AA4253FF50D300A
:080347000104F404F50DAF0DF3
:01034F00228B
:10098600AD4D7F01120936AD4D7F02120936AD4DD0
:100996007F03120936E4F52E120AB8E52CB405FBDE
:0509A600AF40020A8CC5
:03000B00020539B2
:10053900C0E0C0F0C083C082C0D075D000C000C088
:0D05490001C002C003C004C005C006C00709
:10055600C28C758AB0758C3C052EE52EC3940A4074
:1005660018752E0030000974412540F8E6FD80021A
:10057600AD4D7F04120936B2001206928F2C120678
:1005860092EF60097F027E00120ACD80F1E52C24ED
:10059600FE601514601D14603324037046E540B4F4
:1005A600080280180540803BE540B40502802B1503
:1005B600408030E54024F8600804700A75400580E4
:1005C60022754006801D054005408017E54024FA47
:1005D600600804700A754007800975400880041594
:0505E600401540D28C1D
:1005EB00D007D006D005D004D003D002D001D00064
:0B05FB00D0D0D082D083D0F0D0E0320E
:06000300000000DFFB22FB
:100A7000C201C2B77F60120003D2B77F0C1200031D
:0B0A8000A2B792017F3C120003A2010C
:010A8B002248
:100A1600E4FEFDC2B70000D2B7EDC313FD30B70345
:0E0A26004305807F0B1200030EBE08E7AF05EC
:010A3400229F
:0709AB007FCC1209B27FBEF0
:0209B200AE078E
:1009B400E4FDC2B70000EE1392B77F0C120003D21D
:0B09C400B7EEC313FE00000DBD08E7F6
:0109CF002205
:1009D000E4FEFDEE6F30E00C630618EEC313FE4339
:1009E00006808004EEC313FEEFC313FF0DBD08E3C2
:0209F000AF0650
:0109F20022E2
:08090D008B1B8A1C891DAC053F
:10091500E4FFAE041CEE6018AB1B051DE51DAA1C0B
:100925007002051C14F91203726FFF1209D080E2E0
:01093500229F
:1006F700E4FCF519F51A120A707FCC1209B27F448F
:100707001209B27F647E00120ACD120A701209AB79
:10071700E4FC120A1674102CF8A6070CBC09F37B2C
:10072700007A0079107D0912090DEF6014C2957FD8
:10073700E87E03120ACDD2957FE87E03120ACD80A8
:0F074700DEE51A4511F519E510F51AAE19AF1ACE
:010756002280
:10075700E4FCF516F517120A707FCC1209B27FB8C0
:100767001209B2120A701209AB120A16740D2CF88C
:10077700A6070CBC09F37B007A00790D7D091209E5
:100787000DEF6014C2957FD07E07120ACDD2957FF8
:10079700D07E07120ACD80DEE517450FF516E51066
:0607A700F517AE16AF17B6
:0107AD002229
:1008E000AC07AA05120A707FCC1209B27F4E12091A
:1008F000B2AF041209B2AF021209B2AF031209B2C9
:0D090000120A707FCC1209B27F480209B2C2
:100ACD00EF4E600F7D027CEFDCFEDDFCEF1F70F062
:030ADD001E80ED8B
:010AE00022F3
:090B3500D2A1D2A0C2A0C2A122EB
:100AF500E4FEEF1392A0D2A1C2A1EFC313FF0EBE75
:020B050008F0F6
:010B070022CB
:030B1700120AF5CA
:070B1A00D295D2A1C2A12275
:090B3E00C2A1C2A0D2A1D2A022E2
:10069200E4F50EFDFC120B357F42120B17D2A0EDD2
:1006A200C394085011ECC313FCD2A130A00343043D
:1006B20080C2A10D80E9120B1A120B3EEC240D60D0
:1006C2002914602114601914601114600924F8704F
:1006D2001EE4F50E801C750E018017750E02801245
:1006E200750E03800D750E048008750E0580037566
:0406F2000E06AF0E33
:0106F60022E1
:020A8C00AE07B3
:100A8E00EE6006144488FF80027F80120B35120B35
:040A9E0017020B3EF2
:10093600AC07120B357F44120AF5120B1A120B3E46
:10094600120B35EC1444C0FF120AF5120B1AAF0550
:09095600120AF5120B1A020B3E05
:060B0800C2A58F80D2A7F8
:080B0E007F027EC7DEFEDFFC62
:010B160022BC
:0A0B2100C2A6120B08C2A7020B0EB9
:100A3500CFCDCFCECCCE1203CA7C007D0A1203CA1D
:040A4500ED2430FF6D
:0A0A4900D2A6120B08C2A7020B0E82
:100AA200AE07BE0104ED148006BE0209ED243F44E8
:060AB20080FF120B21225F
:100AE1007F38120B217F0C120B217F06120B217F05
:040AF10001020B21D2
:0A0B2B00AC03120AA2AF04020A494B
:0609F3008B108A1189122D
:1009F900120AA2E4FDAB10AA11A9128D8275830017
:0C0A090012038BFF6006120A490D80E901
:010A150022BE
:0C08AD007F0AEA24FFFDE434FFFC7E001B
:0808B9008E158F168C178D18A7
:1008C1007F017E00E4FBEBC39518E5176480F874A3
:0E08D1008098500AAC15AD161203B80B80E8E3
:0108DF0022F6
:040A53008A128B1365
:100A5700120AA2AA14EAD39400400D1208ADAC12F0
:080A6700AD13120A351A80EDEF
:010A6F002264
:10080200120AA2C3EA64809480400B7F2B120A4929
:100812008A5F8B60800E7F2D120A49C3E49BF560CC
:10082200E49AF55FAA5EEAD39400400D1208ADACDB
:090832005FAD60120A351A80ED79
:01083B00229A
:04083C008A638B64DC
:10084000120AA2AA65EAD3940040297F101208AFC9
:10085000AC63AD64CFCDCFCECCCE1203CAEF540F74
:10086000FEC3940AEE5004243080022437FF120A9B
:04087000491A80D1D0
:010874002261
:040875008A688B6999
:10087900120AA2AA6AEAD394004028EA24FFFDE4F6
:1008890034FFFC7F027E001208B9AC68AD69CFCD98
:10089900CFCECCCE1203CAEF54012430FF120A493D
:0308A9001A80D2E0
:0108AC002229
:03000000020606EF
:0C060600787FE4F6D8FD75816A02064D8D
:10035000C2D530F707B2D563F0FF05F030E70CB235
:10036000D5F4048463F0FF05F080018430D502F4F5
:02037000042265
:10037200BB010689828A83E0225002E722BBFE0289
:09038200E32289828A83E49322BC
:10038B00BB010CE58229F582E5833AF583E0225027
:10039B0006E92582F8E622BBFE06E92582F8E22271
:0D03AB00E58229F582E5833AF583E493228B
:1003B800EF8DF0A4A8F0CF8CF0A428CE8DF0A42E59
:0203C800FE2213
:1003CA00BC000BBE0029EF8DF084FFADF022E4CC17
:1003DA00F875F008EF2FFFEE33FEEC33FCEE9DECE0
:1003EA00984005FCEE9DFE0FD5F0E9E4CEFD22ED26
:1003FA00F8F5F0EE8420D21CFEADF075F008EF2F70
:10040A00FFED33FD4007985006D5F0F222C398FD60
:05041A000FD5F0EA22FD
:10041F00C2D5EC30E709B2D5E4C39DFDE49CFCEEF8
:10042F0030E715B2D5E4C39FFFE49EFE1203CAC3A3
:10043F00E49DFDE49CFC80031203CA30D507C3E49E
:06044F009FFFE49EFE2267
:10061200020455E493A3F8E493A34003F68001F2A5
:1006220008DFF48029E493A3F85407240CC8C333E9
:10063200C4540F4420C8834004F456800146F6DFB8
:10064200E4800B01020408102040809007AEE47E93
:10065200019360BCA3FF543F30E509541FFEE493AD
:10066200A360010ECF54C025E060A840B8E493A374
:10067200FAE493A3F8E493A3C8C582C8CAC583CA9F
:10068200F0A3C8C582C8CAC583CADFE9DEE780BE57
:0108010000F6
:00000001FF
